{
  "contractName": "VaccineControl",
  "abi": [
    {
      "anonymous": false,
      "inputs": [
        {
          "indexed": true,
          "internalType": "uint256",
          "name": "statusCode",
          "type": "uint256"
        }
      ],
      "name": "statusEvent",
      "type": "event"
    },
    {
      "constant": false,
      "inputs": [
        {
          "internalType": "string",
          "name": "_firstName",
          "type": "string"
        },
        {
          "internalType": "string",
          "name": "_lastName",
          "type": "string"
        }
      ],
      "name": "addPerson",
      "outputs": [
        {
          "internalType": "bool",
          "name": "",
          "type": "bool"
        }
      ],
      "payable": false,
      "stateMutability": "nonpayable",
      "type": "function"
    },
    {
      "constant": true,
      "inputs": [],
      "name": "getPerson",
      "outputs": [
        {
          "internalType": "string",
          "name": "",
          "type": "string"
        },
        {
          "internalType": "string",
          "name": "",
          "type": "string"
        }
      ],
      "payable": false,
      "stateMutability": "view",
      "type": "function"
    },
    {
      "constant": true,
      "inputs": [
        {
          "internalType": "uint256",
          "name": "_vaccineId",
          "type": "uint256"
        }
      ],
      "name": "getVaccine",
      "outputs": [
        {
          "internalType": "uint256",
          "name": "",
          "type": "uint256"
        },
        {
          "internalType": "string",
          "name": "",
          "type": "string"
        },
        {
          "internalType": "string",
          "name": "",
          "type": "string"
        }
      ],
      "payable": false,
      "stateMutability": "view",
      "type": "function"
    },
    {
      "constant": false,
      "inputs": [
        {
          "internalType": "uint256",
          "name": "_vaccineId",
          "type": "uint256"
        },
        {
          "internalType": "uint256",
          "name": "_dose",
          "type": "uint256"
        },
        {
          "internalType": "string",
          "name": "_batch",
          "type": "string"
        },
        {
          "internalType": "string",
          "name": "_place",
          "type": "string"
        }
      ],
      "name": "addVaccine",
      "outputs": [
        {
          "internalType": "bool",
          "name": "",
          "type": "bool"
        }
      ],
      "payable": false,
      "stateMutability": "nonpayable",
      "type": "function"
    }
  ],
  "bytecode": "0x608060405234801561001057600080fd5b50610eff806100206000396000f3fe608060405234801561001057600080fd5b506004361061004c5760003560e01c806322f5b58d14610051578063762d9abb146101bb5780638ec4dc95146102d5578063e19728a1146103c4575b600080fd5b6101a16004803603604081101561006757600080fd5b810190808035906020019064010000000081111561008457600080fd5b82018360208201111561009657600080fd5b803590602001918460018302840111640100000000831117156100b857600080fd5b91908080601f016020809104026020016040519081016040528093929190818152602001838380828437600081840152601f19601f8201169050808301925050505050505091929192908035906020019064010000000081111561011b57600080fd5b82018360208201111561012d57600080fd5b8035906020019184600183028401116401000000008311171561014f57600080fd5b91908080601f016020809104026020016040519081016040528093929190818152602001838380828437600081840152601f19601f820116905080830192505050505050509192919290505050610542565b604051808215151515815260200191505060405180910390f35b6101e7600480360360208110156101d157600080fd5b8101908080359060200190929190505050610613565b604051808481526020018060200180602001838103835285818151815260200191508051906020019080838360005b83811015610231578082015181840152602081019050610216565b50505050905090810190601f16801561025e5780820380516001836020036101000a031916815260200191505b50838103825284818151815260200191508051906020019080838360005b8381101561029757808201518184015260208101905061027c565b50505050905090810190601f1680156102c45780820380516001836020036101000a031916815260200191505b509550505050505060405180910390f35b6102dd610863565b604051808060200180602001838103835285818151815260200191508051906020019080838360005b83811015610321578082015181840152602081019050610306565b50505050905090810190601f16801561034e5780820380516001836020036101000a031916815260200191505b50838103825284818151815260200191508051906020019080838360005b8381101561038757808201518184015260208101905061036c565b50505050905090810190601f1680156103b45780820380516001836020036101000a031916815260200191505b5094505050505060405180910390f35b610528600480360360808110156103da57600080fd5b8101908080359060200190929190803590602001909291908035906020019064010000000081111561040b57600080fd5b82018360208201111561041d57600080fd5b8035906020019184600183028401116401000000008311171561043f57600080fd5b91908080601f016020809104026020016040519081016040528093929190818152602001838380828437600081840152601f19601f820116905080830192505050505050509192919290803590602001906401000000008111156104a257600080fd5b8201836020820111156104b457600080fd5b803590602001918460018302840111640100000000831117156104d657600080fd5b91908080601f016020809104026020016040519081016040528093929190818152602001838380828437600081840152601f19601f820116905080830192505050505050509192919290505050610a2e565b604051808215151515815260200191505060405180910390f35b60008033905060008060008373ffffffffffffffffffffffffffffffffffffffff1673ffffffffffffffffffffffffffffffffffffffff1681526020019081526020016000209050848160010190805190602001906105a2929190610d9e565b50838160020190805190602001906105bb929190610d9e565b5060018160030160006101000a81548160ff02191690831515021790555060647fd960689f82d5dec34d3032af354c744f270ee0583106ee3fd8fcfdf09130ba6560405160405180910390a260019250505092915050565b600060608060003390506000808273ffffffffffffffffffffffffffffffffffffffff1673ffffffffffffffffffffffffffffffffffffffff1681526020019081526020016000206004016000868152602001908152602001600020600001546000808373ffffffffffffffffffffffffffffffffffffffff1673ffffffffffffffffffffffffffffffffffffffff16815260200190815260200160002060040160008781526020019081526020016000206001016000808473ffffffffffffffffffffffffffffffffffffffff1673ffffffffffffffffffffffffffffffffffffffff1681526020019081526020016000206004016000888152602001908152602001600020600201818054600181600116156101000203166002900480601f0160208091040260200160405190810160405280929190818152602001828054600181600116156101000203166002900480156107b25780601f10610787576101008083540402835291602001916107b2565b820191906000526020600020905b81548152906001019060200180831161079557829003601f168201915b50505050509150808054600181600116156101000203166002900480601f01602080910402602001604051908101604052809291908181526020018280546001816001161561010002031660029004801561084e5780601f106108235761010080835404028352916020019161084e565b820191906000526020600020905b81548152906001019060200180831161083157829003601f168201915b50505050509050935093509350509193909250565b60608060003390506000808273ffffffffffffffffffffffffffffffffffffffff1673ffffffffffffffffffffffffffffffffffffffff1681526020019081526020016000206001016000808373ffffffffffffffffffffffffffffffffffffffff1673ffffffffffffffffffffffffffffffffffffffff168152602001908152602001600020600201818054600181600116156101000203166002900480601f0160208091040260200160405190810160405280929190818152602001828054600181600116156101000203166002900480156109825780601f1061095757610100808354040283529160200191610982565b820191906000526020600020905b81548152906001019060200180831161096557829003601f168201915b50505050509150808054600181600116156101000203166002900480601f016020809104026020016040519081016040528092919081815260200182805460018160011615610100020316600290048015610a1e5780601f106109f357610100808354040283529160200191610a1e565b820191906000526020600020905b815481529060010190602001808311610a0157829003601f168201915b5050505050905092509250509091565b60008033905060008511610aaa576040517f08c379a00000000000000000000000000000000000000000000000000000000081526004018080602001828103825260108152602001807f446f736520697320696e76616c69642e0000000000000000000000000000000081525060200191505060405180910390fd5b6000845111610b21576040517f08c379a00000000000000000000000000000000000000000000000000000000081526004018080602001828103825260118152602001807f426174636820697320696e76616c69642e00000000000000000000000000000081525060200191505060405180910390fd5b6000835111610b98576040517f08c379a000000000000000000000000000000000000000000000000000000000815260040180806020018281038252601c8152602001807f506c616365206f662076616363696e6520697320696e76616c69642e0000000081525060200191505060405180910390fd5b6000808273ffffffffffffffffffffffffffffffffffffffff1673ffffffffffffffffffffffffffffffffffffffff16815260200190815260200160002060030160009054906101000a900460ff1615610d615760008060008373ffffffffffffffffffffffffffffffffffffffff1673ffffffffffffffffffffffffffffffffffffffff1681526020019081526020016000206004016000888152602001908152602001600020905085816000018190555084816001019080519060200190610c63929190610d9e565b5083816002019080519060200190610c7c929190610d9e565b50806000808473ffffffffffffffffffffffffffffffffffffffff1673ffffffffffffffffffffffffffffffffffffffff16815260200190815260200160002060040160008981526020019081526020016000206000820154816000015560018201816001019080546001816001161561010002031660029004610d01929190610e1e565b5060028201816002019080546001816001161561010002031660029004610d29929190610e1e565b5090505060657fd960689f82d5dec34d3032af354c744f270ee0583106ee3fd8fcfdf09130ba6560405160405180910390a250610d91565b6101907fd960689f82d5dec34d3032af354c744f270ee0583106ee3fd8fcfdf09130ba6560405160405180910390a25b6001915050949350505050565b828054600181600116156101000203166002900490600052602060002090601f016020900481019282601f10610ddf57805160ff1916838001178555610e0d565b82800160010185558215610e0d579182015b82811115610e0c578251825591602001919060010190610df1565b5b509050610e1a9190610ea5565b5090565b828054600181600116156101000203166002900490600052602060002090601f016020900481019282601f10610e575780548555610e94565b82800160010185558215610e9457600052602060002091601f016020900482015b82811115610e93578254825591600101919060010190610e78565b5b509050610ea19190610ea5565b5090565b610ec791905b80821115610ec3576000816000905550600101610eab565b5090565b9056fea265627a7a723158202b9e9ecc15b8e571a005ee28b275704022a50597450aab7ff510908b21caf09e64736f6c63430005100032",
  "source": "pragma solidity >0.4.23;\n\ncontract VaccineControl {\n    \n    event statusEvent(uint indexed statusCode);\n    \n    struct Person {\n        address personAddress;\n        string firstName;\n        string lastName;\n        bool created;\n        mapping(uint => Vaccine) vaccines;\n    }\n\n    struct Vaccine {\n        uint dose;\n        string batch;\n        string place;\n    }\n\n    mapping (address => Person) private persons;\n    \n    function addPerson(string memory _firstName, string memory _lastName) public returns (bool) {\n        \n        address _address = msg.sender;\n        \n        Person storage person = persons[_address];\n        person.firstName = _firstName;\n        person.lastName = _lastName;\n        person.created = true;\n\n        emit statusEvent(100);\n        \n        return true;\n    }\n    \n    function getPerson() public view returns (string memory, string memory) {\n        address _address = msg.sender;\n        return (persons[_address].firstName, persons[_address].lastName);\n    }\n    \n    function getVaccine(uint _vaccineId) public view returns (uint, string memory, string memory) {\n        address _address = msg.sender;\n        return (persons[_address].vaccines[_vaccineId].dose, \n        persons[_address].vaccines[_vaccineId].batch, persons[_address].vaccines[_vaccineId].place);\n    }\n    \n    function addVaccine(uint _vaccineId, uint _dose, string memory _batch, string memory _place) public \n            returns(bool) \n    {\n        address _address = msg.sender;\n\n        require(\n            _dose > 0,\n            \"Dose is invalid.\"\n        );\n        \n        require(\n            bytes(_batch).length > 0,\n            \"Batch is invalid.\"\n        );\n        \n        require(\n            bytes(_place).length > 0,\n            \"Place of vaccine is invalid.\"\n        );\n        \n        if (persons[_address].created) {\n            Vaccine storage vaccine = persons[_address].vaccines[_vaccineId];\n            vaccine.dose = _dose;\n            vaccine.batch = _batch;\n            vaccine.place = _place;\n            persons[_address].vaccines[_vaccineId] = vaccine;\n   \n            emit statusEvent(101);\n        } \n        else\n        {\n            emit statusEvent(400);\n        }\n        return true;\n    }\n       \n}",
  "sourcePath": "C:/Users/pc/Downloads/bck-eth-dapp-vaccine-control-master/bck-eth-dapp-vaccine-control-master/contracts/VaccineControl.sol",
  "compiler": {
    "name": "solc",
    "version": "0.5.16+commit.9c3226ce.Emscripten.clang"
  },
  "schemaVersion": "3.3.3",
  "updatedAt": "2021-02-03T21:54:21.327Z",
  "networkType": "ethereum",
  "devdoc": {
    "methods": {}
  },
  "userdoc": {
    "methods": {}
  }
}