{
  "contractName": "VaccineControl",
  "abi": [
    {
      "anonymous": false,
      "inputs": [
        {
          "indexed": true,
          "internalType": "uint256",
          "name": "statusCode",
          "type": "uint256"
        }
      ],
      "name": "statusEvent",
      "type": "event"
    },
    {
      "constant": false,
      "inputs": [
        {
          "internalType": "string",
          "name": "_adhar",
          "type": "string"
        },
        {
          "internalType": "string",
          "name": "_firstName",
          "type": "string"
        },
        {
          "internalType": "string",
          "name": "_lastName",
          "type": "string"
        },
        {
          "internalType": "string",
          "name": "_age",
          "type": "string"
        },
        {
          "internalType": "string",
          "name": "_mobile",
          "type": "string"
        },
        {
          "internalType": "string",
          "name": "_email",
          "type": "string"
        },
        {
          "internalType": "string",
          "name": "_vaccineName",
          "type": "string"
        }
      ],
      "name": "addPerson",
      "outputs": [
        {
          "internalType": "bool",
          "name": "",
          "type": "bool"
        }
      ],
      "payable": false,
      "stateMutability": "nonpayable",
      "type": "function"
    },
    {
      "constant": false,
      "inputs": [
        {
          "internalType": "string",
          "name": "_adhar",
          "type": "string"
        }
      ],
      "name": "updatePerson",
      "outputs": [
        {
          "internalType": "bool",
          "name": "",
          "type": "bool"
        }
      ],
      "payable": false,
      "stateMutability": "nonpayable",
      "type": "function"
    },
    {
      "constant": true,
      "inputs": [],
      "name": "getStats",
      "outputs": [
        {
          "internalType": "uint256",
          "name": "",
          "type": "uint256"
        },
        {
          "internalType": "uint256",
          "name": "",
          "type": "uint256"
        },
        {
          "internalType": "uint256",
          "name": "",
          "type": "uint256"
        },
        {
          "internalType": "uint256",
          "name": "",
          "type": "uint256"
        }
      ],
      "payable": false,
      "stateMutability": "view",
      "type": "function"
    },
    {
      "constant": true,
      "inputs": [
        {
          "internalType": "string",
          "name": "_adhar",
          "type": "string"
        }
      ],
      "name": "getPerson",
      "outputs": [
        {
          "internalType": "string",
          "name": "",
          "type": "string"
        },
        {
          "internalType": "string",
          "name": "",
          "type": "string"
        }
      ],
      "payable": false,
      "stateMutability": "view",
      "type": "function"
    }
  ],
  "bytecode": "0x6080604052600060015560006002556000600355600060045534801561002457600080fd5b506111ad806100346000396000f3fe608060405234801561001057600080fd5b506004361061004c5760003560e01c80636662696314610051578063c59d484714610124578063d48cf02b14610157578063e907247c146105b4575b600080fd5b61010a6004803603602081101561006757600080fd5b810190808035906020019064010000000081111561008457600080fd5b82018360208201111561009657600080fd5b803590602001918460018302840111640100000000831117156100b857600080fd5b91908080601f016020809104026020016040519081016040528093929190818152602001838380828437600081840152601f19601f820116905080830192505050505050509192919290505050610754565b604051808215151515815260200191505060405180910390f35b61012c610a42565b6040518085815260200184815260200183815260200182815260200194505050505060405180910390f35b61059a600480360360e081101561016d57600080fd5b810190808035906020019064010000000081111561018a57600080fd5b82018360208201111561019c57600080fd5b803590602001918460018302840111640100000000831117156101be57600080fd5b91908080601f016020809104026020016040519081016040528093929190818152602001838380828437600081840152601f19601f8201169050808301925050505050505091929192908035906020019064010000000081111561022157600080fd5b82018360208201111561023357600080fd5b8035906020019184600183028401116401000000008311171561025557600080fd5b91908080601f016020809104026020016040519081016040528093929190818152602001838380828437600081840152601f19601f820116905080830192505050505050509192919290803590602001906401000000008111156102b857600080fd5b8201836020820111156102ca57600080fd5b803590602001918460018302840111640100000000831117156102ec57600080fd5b91908080601f016020809104026020016040519081016040528093929190818152602001838380828437600081840152601f19601f8201169050808301925050505050505091929192908035906020019064010000000081111561034f57600080fd5b82018360208201111561036157600080fd5b8035906020019184600183028401116401000000008311171561038357600080fd5b91908080601f016020809104026020016040519081016040528093929190818152602001838380828437600081840152601f19601f820116905080830192505050505050509192919290803590602001906401000000008111156103e657600080fd5b8201836020820111156103f857600080fd5b8035906020019184600183028401116401000000008311171561041a57600080fd5b91908080601f016020809104026020016040519081016040528093929190818152602001838380828437600081840152601f19601f8201169050808301925050505050505091929192908035906020019064010000000081111561047d57600080fd5b82018360208201111561048f57600080fd5b803590602001918460018302840111640100000000831117156104b157600080fd5b91908080601f016020809104026020016040519081016040528093929190818152602001838380828437600081840152601f19601f8201169050808301925050505050505091929192908035906020019064010000000081111561051457600080fd5b82018360208201111561052657600080fd5b8035906020019184600183028401116401000000008311171561054857600080fd5b91908080601f016020809104026020016040519081016040528093929190818152602001838380828437600081840152601f19601f820116905080830192505050505050509192919290505050610a62565b604051808215151515815260200191505060405180910390f35b61066d600480360360208110156105ca57600080fd5b81019080803590602001906401000000008111156105e757600080fd5b8201836020820111156105f957600080fd5b8035906020019184600183028401116401000000008311171561061b57600080fd5b91908080601f016020809104026020016040519081016040528093929190818152602001838380828437600081840152601f19601f820116905080830192505050505050509192919290505050610d28565b604051808060200180602001838103835285818151815260200191508051906020019080838360005b838110156106b1578082015181840152602081019050610696565b50505050905090810190601f1680156106de5780820380516001836020036101000a031916815260200191505b50838103825284818151815260200191508051906020019080838360005b838110156107175780820151818401526020810190506106fc565b50505050905090810190601f1680156107445780820380516001836020036101000a031916815260200191505b5094505050505060405180910390f35b6000805b6000805490508110156109f857826040516020018082805190602001908083835b6020831061079c5780518252602082019150602081019050602083039250610779565b6001836020036101000a03801982511681845116808217855250505050505090500191505060405160208183030381529060405280519060200120600082815481106107e457fe5b906000526020600020906008020160000160405160200180828054600181600116156101000203166002900480156108535780601f10610831576101008083540402835291820191610853565b820191906000526020600020905b81548152906001019060200180831161083f575b50509150506040516020818303038152906040528051906020012014156109eb576040518060400160405280600181526020017f3200000000000000000000000000000000000000000000000000000000000000815250600082815481106108b757fe5b906000526020600020906008020160070190805190602001906108db929190611053565b5060405160200180807f436f766178696e000000000000000000000000000000000000000000000000008152506007019050604051602081830303815290604052805190602001206000828154811061093057fe5b9060005260206000209060080201600601604051602001808280546001816001161561010002031660029004801561099f5780601f1061097d57610100808354040283529182019161099f565b820191906000526020600020905b81548152906001019060200180831161098b575b50509150506040516020818303038152906040528051906020012014156109d7576002600081548092919060010191905055506109ea565b6001600081548092919060010191905055505b5b8080600101915050610758565b5060046000815480929190600101919050555060647fd960689f82d5dec34d3032af354c744f270ee0583106ee3fd8fcfdf09130ba6560405160405180910390a260019050919050565b600080600080600354600454600254600154935093509350935090919293565b60008033905060006040518061010001604052808b81526020018a81526020018981526020018881526020018781526020018681526020018581526020016040518060400160405280600181526020017f3100000000000000000000000000000000000000000000000000000000000000815250815250908060018154018082558091505090600182039060005260206000209060080201600090919290919091506000820151816000019080519060200190610b209291906110d3565b506020820151816001019080519060200190610b3d9291906110d3565b506040820151816002019080519060200190610b5a9291906110d3565b506060820151816003019080519060200190610b779291906110d3565b506080820151816004019080519060200190610b949291906110d3565b5060a0820151816005019080519060200190610bb19291906110d3565b5060c0820151816006019080519060200190610bce9291906110d3565b5060e0820151816007019080519060200190610beb9291906110d3565b5050505060405160200180807f436f766178696e00000000000000000000000000000000000000000000000000815250600701905060405160208183030381529060405280519060200120836040516020018082805190602001908083835b60208310610c6d5780518252602082019150602081019050602083039250610c4a565b6001836020036101000a038019825116818451168082178552505050505050905001915050604051602081830303815290604052805190602001201415610cc557600260008154809291906001019190505550610cd8565b6001600081548092919060010191905055505b60036000815480929190600101919050555060647fd960689f82d5dec34d3032af354c744f270ee0583106ee3fd8fcfdf09130ba6560405160405180910390a26001915050979650505050505050565b606080600033905060005b600080549050811015610fdb57846040516020018082805190602001908083835b60208310610d775780518252602082019150602081019050602083039250610d54565b6001836020036101000a0380198251168184511680821785525050505050509050019150506040516020818303038152906040528051906020012060008281548110610dbf57fe5b90600052602060002090600802016000016040516020018082805460018160011615610100020316600290048015610e2e5780601f10610e0c576101008083540402835291820191610e2e565b820191906000526020600020905b815481529060010190602001808311610e1a575b5050915050604051602081830303815290604052805190602001201415610fce5760008181548110610e5c57fe5b906000526020600020906008020160070160008281548110610e7a57fe5b9060005260206000209060080201600601818054600181600116156101000203166002900480601f016020809104026020016040519081016040528092919081815260200182805460018160011615610100020316600290048015610f205780601f10610ef557610100808354040283529160200191610f20565b820191906000526020600020905b815481529060010190602001808311610f0357829003601f168201915b50505050509150808054600181600116156101000203166002900480601f016020809104026020016040519081016040528092919081815260200182805460018160011615610100020316600290048015610fbc5780601f10610f9157610100808354040283529160200191610fbc565b820191906000526020600020905b815481529060010190602001808311610f9f57829003601f168201915b5050505050905093509350505061104e565b8080600101915050610d33565b506040518060400160405280600181526020017f33000000000000000000000000000000000000000000000000000000000000008152506040518060400160405280600481526020017f6e756c6c0000000000000000000000000000000000000000000000000000000081525092509250505b915091565b828054600181600116156101000203166002900490600052602060002090601f016020900481019282601f1061109457805160ff19168380011785556110c2565b828001600101855582156110c2579182015b828111156110c15782518255916020019190600101906110a6565b5b5090506110cf9190611153565b5090565b828054600181600116156101000203166002900490600052602060002090601f016020900481019282601f1061111457805160ff1916838001178555611142565b82800160010185558215611142579182015b82811115611141578251825591602001919060010190611126565b5b50905061114f9190611153565b5090565b61117591905b80821115611171576000816000905550600101611159565b5090565b9056fea265627a7a723158200cc768d9ee3c4f7b04b5968e8b23b6e572b919a50709120412fa85996a4f2c5064736f6c63430005100032",
  "source": "pragma solidity >0.4.23;\n\ncontract VaccineControl {\n    \n    event statusEvent(uint indexed statusCode);\n    struct Operator {\n        address operatorAddress;\n        string firstName;\n        string lastName;\n        \n    }\n\n    struct Person {\n        string adhar;\n        string firstName;\n        string lastName;\n        \n        string age;\n        string mobile;\n        string email;\n        string vaccineName;\n        string dose;\n    }\n    Person[] persons;\n    uint256 covishield=0;\n    uint256 covaxin=0;\n    uint256 onedosecount=0;\n    uint256 twodosecount=0;\n    mapping (address => Operator) private operators;\n    \n    function addPerson(string memory _adhar,string memory _firstName, string memory _lastName,string memory _age,string memory _mobile,string memory _email,string memory _vaccineName) public returns (bool) {\n        \n        address _address = msg.sender;\n        \n        \n        persons.push(Person(_adhar,_firstName,_lastName,_age,_mobile,_email,_vaccineName,\"1\"));\n        if((keccak256(abi.encodePacked(_vaccineName)))==(keccak256(abi.encodePacked(\"Covaxin\"))))\n        covaxin++;\n        else\n        covishield++;\n\n        onedosecount++;\n        emit statusEvent(100);\n        \n        return true;\n    }\n    function updatePerson(string memory _adhar) public returns (bool) {\n    \n        for(uint256 i;i<persons.length;i++){\n            if(keccak256(abi.encodePacked(persons[i].adhar)) ==keccak256(abi.encodePacked(_adhar))){    \n                persons[i].dose=\"2\";\n                 if((keccak256(abi.encodePacked(persons[i].vaccineName)))==(keccak256(abi.encodePacked(\"Covaxin\"))))\n                    covaxin++;\n                else\n                    covishield++;\n            }\n        }\n        twodosecount++;\n        \n        \n        emit statusEvent(100);\n        \n        return true;\n    }\n    function getStats() public view returns ( uint256,uint256,uint256,uint256){\n        return (onedosecount,twodosecount,covaxin,covishield);\n    }\n\n    function getPerson(string memory _adhar) public view returns (string memory,string memory){\n        address _address =msg.sender;\n        \n        for(uint256 i;i<persons.length;i++){\n            if(keccak256(abi.encodePacked(persons[i].adhar)) ==keccak256(abi.encodePacked(_adhar)))return (persons[i].dose,persons[i].vaccineName);\n\n        }\n        \n        return (\"3\",\"null\");\n    }\n    \n   \n       \n}",
  "sourcePath": "C:/Users/pc/Documents/GitHub/CovidVaccine/contracts/VaccineControl.sol",
  "compiler": {
    "name": "solc",
    "version": "0.5.16+commit.9c3226ce.Emscripten.clang"
  },
  "schemaVersion": "3.3.3",
  "updatedAt": "2021-04-25T13:11:43.836Z",
  "networkType": "ethereum",
  "devdoc": {
    "methods": {}
  },
  "userdoc": {
    "methods": {}
  }
}