{
  "contractName": "VaccineControl",
  "abi": [
    {
      "anonymous": false,
      "inputs": [
        {
          "indexed": true,
          "internalType": "uint256",
          "name": "statusCode",
          "type": "uint256"
        }
      ],
      "name": "statusEvent",
      "type": "event"
    },
    {
      "constant": false,
      "inputs": [
        {
          "internalType": "string",
          "name": "_adhar",
          "type": "string"
        },
        {
          "internalType": "string",
          "name": "_firstName",
          "type": "string"
        },
        {
          "internalType": "string",
          "name": "_lastName",
          "type": "string"
        },
        {
          "internalType": "string",
          "name": "_age",
          "type": "string"
        },
        {
          "internalType": "string",
          "name": "_mobile",
          "type": "string"
        },
        {
          "internalType": "string",
          "name": "_email",
          "type": "string"
        },
        {
          "internalType": "string",
          "name": "_vaccineName",
          "type": "string"
        }
      ],
      "name": "addPerson",
      "outputs": [
        {
          "internalType": "bool",
          "name": "",
          "type": "bool"
        }
      ],
      "payable": false,
      "stateMutability": "nonpayable",
      "type": "function"
    },
    {
      "constant": false,
      "inputs": [
        {
          "internalType": "string",
          "name": "_adhar",
          "type": "string"
        }
      ],
      "name": "updatePerson",
      "outputs": [
        {
          "internalType": "bool",
          "name": "",
          "type": "bool"
        }
      ],
      "payable": false,
      "stateMutability": "nonpayable",
      "type": "function"
    },
    {
      "constant": true,
      "inputs": [],
      "name": "getStats",
      "outputs": [
        {
          "internalType": "uint256",
          "name": "",
          "type": "uint256"
        },
        {
          "internalType": "uint256",
          "name": "",
          "type": "uint256"
        },
        {
          "internalType": "uint256",
          "name": "",
          "type": "uint256"
        }
      ],
      "payable": false,
      "stateMutability": "view",
      "type": "function"
    },
    {
      "constant": true,
      "inputs": [
        {
          "internalType": "string",
          "name": "_adhar",
          "type": "string"
        }
      ],
      "name": "getPerson",
      "outputs": [
        {
          "internalType": "string",
          "name": "",
          "type": "string"
        },
        {
          "internalType": "string",
          "name": "",
          "type": "string"
        }
      ],
      "payable": false,
      "stateMutability": "view",
      "type": "function"
    }
  ],
  "bytecode": "0x608060405260006001556000600255600060035534801561001f57600080fd5b5061118d8061002f6000396000f3fe608060405234801561001057600080fd5b506004361061004c5760003560e01c80636662696314610051578063c59d484714610124578063d48cf02b14610150578063e907247c146105ad575b600080fd5b61010a6004803603602081101561006757600080fd5b810190808035906020019064010000000081111561008457600080fd5b82018360208201111561009657600080fd5b803590602001918460018302840111640100000000831117156100b857600080fd5b91908080601f016020809104026020016040519081016040528093929190818152602001838380828437600081840152601f19601f82011690508083019250505050505050919291929050505061074d565b604051808215151515815260200191505060405180910390f35b61012c610a29565b60405180848152602001838152602001828152602001935050505060405180910390f35b610593600480360360e081101561016657600080fd5b810190808035906020019064010000000081111561018357600080fd5b82018360208201111561019557600080fd5b803590602001918460018302840111640100000000831117156101b757600080fd5b91908080601f016020809104026020016040519081016040528093929190818152602001838380828437600081840152601f19601f8201169050808301925050505050505091929192908035906020019064010000000081111561021a57600080fd5b82018360208201111561022c57600080fd5b8035906020019184600183028401116401000000008311171561024e57600080fd5b91908080601f016020809104026020016040519081016040528093929190818152602001838380828437600081840152601f19601f820116905080830192505050505050509192919290803590602001906401000000008111156102b157600080fd5b8201836020820111156102c357600080fd5b803590602001918460018302840111640100000000831117156102e557600080fd5b91908080601f016020809104026020016040519081016040528093929190818152602001838380828437600081840152601f19601f8201169050808301925050505050505091929192908035906020019064010000000081111561034857600080fd5b82018360208201111561035a57600080fd5b8035906020019184600183028401116401000000008311171561037c57600080fd5b91908080601f016020809104026020016040519081016040528093929190818152602001838380828437600081840152601f19601f820116905080830192505050505050509192919290803590602001906401000000008111156103df57600080fd5b8201836020820111156103f157600080fd5b8035906020019184600183028401116401000000008311171561041357600080fd5b91908080601f016020809104026020016040519081016040528093929190818152602001838380828437600081840152601f19601f8201169050808301925050505050505091929192908035906020019064010000000081111561047657600080fd5b82018360208201111561048857600080fd5b803590602001918460018302840111640100000000831117156104aa57600080fd5b91908080601f016020809104026020016040519081016040528093929190818152602001838380828437600081840152601f19601f8201169050808301925050505050505091929192908035906020019064010000000081111561050d57600080fd5b82018360208201111561051f57600080fd5b8035906020019184600183028401116401000000008311171561054157600080fd5b91908080601f016020809104026020016040519081016040528093929190818152602001838380828437600081840152601f19601f820116905080830192505050505050509192919290505050610a42565b604051808215151515815260200191505060405180910390f35b610666600480360360208110156105c357600080fd5b81019080803590602001906401000000008111156105e057600080fd5b8201836020820111156105f257600080fd5b8035906020019184600183028401116401000000008311171561061457600080fd5b91908080601f016020809104026020016040519081016040528093929190818152602001838380828437600081840152601f19601f820116905080830192505050505050509192919290505050610d08565b604051808060200180602001838103835285818151815260200191508051906020019080838360005b838110156106aa57808201518184015260208101905061068f565b50505050905090810190601f1680156106d75780820380516001836020036101000a031916815260200191505b50838103825284818151815260200191508051906020019080838360005b838110156107105780820151818401526020810190506106f5565b50505050905090810190601f16801561073d5780820380516001836020036101000a031916815260200191505b5094505050505060405180910390f35b6000805b6000805490508110156109f157826040516020018082805190602001908083835b602083106107955780518252602082019150602081019050602083039250610772565b6001836020036101000a03801982511681845116808217855250505050505090500191505060405160208183030381529060405280519060200120600082815481106107dd57fe5b9060005260206000209060080201600001604051602001808280546001816001161561010002031660029004801561084c5780601f1061082a57610100808354040283529182019161084c565b820191906000526020600020905b815481529060010190602001808311610838575b50509150506040516020818303038152906040528051906020012014156109e4576040518060400160405280600181526020017f3200000000000000000000000000000000000000000000000000000000000000815250600082815481106108b057fe5b906000526020600020906008020160070190805190602001906108d4929190611033565b5060405160200180807f436f766178696e000000000000000000000000000000000000000000000000008152506007019050604051602081830303815290604052805190602001206000828154811061092957fe5b906000526020600020906008020160060160405160200180828054600181600116156101000203166002900480156109985780601f10610976576101008083540402835291820191610998565b820191906000526020600020905b815481529060010190602001808311610984575b50509150506040516020818303038152906040528051906020012014156109d0576002600081548092919060010191905055506109e3565b6001600081548092919060010191905055505b5b8080600101915050610751565b5060647fd960689f82d5dec34d3032af354c744f270ee0583106ee3fd8fcfdf09130ba6560405160405180910390a260019050919050565b6000806000600354600254600154925092509250909192565b60008033905060006040518061010001604052808b81526020018a81526020018981526020018881526020018781526020018681526020018581526020016040518060400160405280600181526020017f3100000000000000000000000000000000000000000000000000000000000000815250815250908060018154018082558091505090600182039060005260206000209060080201600090919290919091506000820151816000019080519060200190610b009291906110b3565b506020820151816001019080519060200190610b1d9291906110b3565b506040820151816002019080519060200190610b3a9291906110b3565b506060820151816003019080519060200190610b579291906110b3565b506080820151816004019080519060200190610b749291906110b3565b5060a0820151816005019080519060200190610b919291906110b3565b5060c0820151816006019080519060200190610bae9291906110b3565b5060e0820151816007019080519060200190610bcb9291906110b3565b5050505060405160200180807f436f766178696e00000000000000000000000000000000000000000000000000815250600701905060405160208183030381529060405280519060200120836040516020018082805190602001908083835b60208310610c4d5780518252602082019150602081019050602083039250610c2a565b6001836020036101000a038019825116818451168082178552505050505050905001915050604051602081830303815290604052805190602001201415610ca557600260008154809291906001019190505550610cb8565b6001600081548092919060010191905055505b60036000815480929190600101919050555060647fd960689f82d5dec34d3032af354c744f270ee0583106ee3fd8fcfdf09130ba6560405160405180910390a26001915050979650505050505050565b606080600033905060005b600080549050811015610fbb57846040516020018082805190602001908083835b60208310610d575780518252602082019150602081019050602083039250610d34565b6001836020036101000a0380198251168184511680821785525050505050509050019150506040516020818303038152906040528051906020012060008281548110610d9f57fe5b90600052602060002090600802016000016040516020018082805460018160011615610100020316600290048015610e0e5780601f10610dec576101008083540402835291820191610e0e565b820191906000526020600020905b815481529060010190602001808311610dfa575b5050915050604051602081830303815290604052805190602001201415610fae5760008181548110610e3c57fe5b906000526020600020906008020160070160008281548110610e5a57fe5b9060005260206000209060080201600601818054600181600116156101000203166002900480601f016020809104026020016040519081016040528092919081815260200182805460018160011615610100020316600290048015610f005780601f10610ed557610100808354040283529160200191610f00565b820191906000526020600020905b815481529060010190602001808311610ee357829003601f168201915b50505050509150808054600181600116156101000203166002900480601f016020809104026020016040519081016040528092919081815260200182805460018160011615610100020316600290048015610f9c5780601f10610f7157610100808354040283529160200191610f9c565b820191906000526020600020905b815481529060010190602001808311610f7f57829003601f168201915b5050505050905093509350505061102e565b8080600101915050610d13565b506040518060400160405280600181526020017f33000000000000000000000000000000000000000000000000000000000000008152506040518060400160405280600481526020017f6e756c6c0000000000000000000000000000000000000000000000000000000081525092509250505b915091565b828054600181600116156101000203166002900490600052602060002090601f016020900481019282601f1061107457805160ff19168380011785556110a2565b828001600101855582156110a2579182015b828111156110a1578251825591602001919060010190611086565b5b5090506110af9190611133565b5090565b828054600181600116156101000203166002900490600052602060002090601f016020900481019282601f106110f457805160ff1916838001178555611122565b82800160010185558215611122579182015b82811115611121578251825591602001919060010190611106565b5b50905061112f9190611133565b5090565b61115591905b80821115611151576000816000905550600101611139565b5090565b9056fea265627a7a723158208dca94f693481758e49a499f79b8a640948ac9c173ddf36c01e929364ed0015e64736f6c63430005100032",
  "source": "pragma solidity >0.4.23;\n\ncontract VaccineControl {\n    \n    event statusEvent(uint indexed statusCode);\n    struct Operator {\n        address operatorAddress;\n        string firstName;\n        string lastName;\n        \n    }\n\n    struct Person {\n        string adhar;\n        string firstName;\n        string lastName;\n        \n        string age;\n        string mobile;\n        string email;\n        string vaccineName;\n        string dose;\n    }\n    Person[] persons;\n    uint256 covishield=0;\n    uint256 covaxin=0;\n    uint256 personcount=0;\n    mapping (address => Operator) private operators;\n    \n    function addPerson(string memory _adhar,string memory _firstName, string memory _lastName,string memory _age,string memory _mobile,string memory _email,string memory _vaccineName) public returns (bool) {\n        \n        address _address = msg.sender;\n        \n        \n        persons.push(Person(_adhar,_firstName,_lastName,_age,_mobile,_email,_vaccineName,\"1\"));\n        if((keccak256(abi.encodePacked(_vaccineName)))==(keccak256(abi.encodePacked(\"Covaxin\"))))\n        covaxin++;\n        else\n        covishield++;\n\n        personcount++;\n        emit statusEvent(100);\n        \n        return true;\n    }\n    function updatePerson(string memory _adhar) public returns (bool) {\n    \n        for(uint256 i;i<persons.length;i++){\n            if(keccak256(abi.encodePacked(persons[i].adhar)) ==keccak256(abi.encodePacked(_adhar))){    \n                persons[i].dose=\"2\";\n                 if((keccak256(abi.encodePacked(persons[i].vaccineName)))==(keccak256(abi.encodePacked(\"Covaxin\"))))\n                    covaxin++;\n                else\n                    covishield++;\n            }\n        }\n        \n        \n        emit statusEvent(100);\n        \n        return true;\n    }\n    function getStats() public view returns ( uint256,uint256,uint256){\n        return (personcount,covaxin,covishield);\n    }\n\n    function getPerson(string memory _adhar) public view returns (string memory,string memory){\n        address _address =msg.sender;\n        \n        for(uint256 i;i<persons.length;i++){\n            if(keccak256(abi.encodePacked(persons[i].adhar)) ==keccak256(abi.encodePacked(_adhar)))return (persons[i].dose,persons[i].vaccineName);\n\n        }\n        \n        return (\"3\",\"null\");\n    }\n    \n   \n       \n}",
  "sourcePath": "C:/Users/pc/Documents/GitHub/CovidVaccine/contracts/VaccineControl.sol",
  "compiler": {
    "name": "solc",
    "version": "0.5.16+commit.9c3226ce.Emscripten.clang"
  },
  "schemaVersion": "3.3.3",
  "updatedAt": "2021-04-22T13:12:07.014Z",
  "networkType": "ethereum",
  "devdoc": {
    "methods": {}
  },
  "userdoc": {
    "methods": {}
  }
}